:020000040800F2
:1000000000300020952C0008D92B0008DB2B0008BD
:10001000DD2B0008DF2B0008E12B000800000000AA
:10002000000000000000000000000000E32B0008BA
:10003000E52B000800000000E72B0008E92B000872
:10004000E52C0008E52C0008E52C0008E52C00084C
:10005000E52C0008E52C0008E52C0008E52C00083C
:10006000E52C0008E52C0008E52C0008E52C00082C
:10007000E52C0008E52C0008E52C0008E52C00081C
:10008000E52C0008E52C0008E52C0008E52C00080C
:10009000E52C0008E52C0008E52C0008E52C0008FC
:1000A000E52C0008E52C0008E52C0008E52C0008EC
:1000B000E52C0008E52C000800000000E52C0008F5
:1000C000E52C00080000000000000000E52C0008FE
:1000D00000000000E52C0008E52C0008E52C0008D5
:1000E000E52C0008E52C00080000000000000000DE
:1000F0000000000000000000000000000000000000
:1001000000000000000000000000000000000000EF
:100110000000000000000000E52C0008E52C0008AD
:1001200000000000000000000000000000000000CF
:1001300000000000000000000000000000000000BF
:10014000E52C0008E52C000800000000000000007D
:10015000000000000000000000000000000000009F
:10016000000000000000000000000000000000008F
:10017000000000000000000000000000000000007F
:0801800000000000E52C00085E
:1001900010B5054C237833B9044B13B10448AFF3C1
:1001A00000800123237010BD7000002000000000BB
:1001B0005835000808B5034B1BB103490348AFF39A
:1001C000008008BD000000007400002058350008C1
:1001D00001F0FF01102A2BDB10F0070F08D010F8F8
:1001E000013B013A8B422DD010F0070F42B3F6D1FC
:1001F000F0B441EA012141EA014122F007047FF015
:1002000000070023F0E80256083C85EA010586EA6B
:10021000010685FA47F5A3FA87F586FA47F6A5FAA7
:1002200087F68EB9EED1F0BC01F0FF0102F00702B3
:1002300032B110F8013B013A83EA010313B1F8D15E
:100240000020704701387047002D06BF354603383F
:10025000073815F0010F07D1013015F4807F02BF78
:10026000013015F4C03F0130F0BC0138704700BFC9
:1002700010B504460E4B18784FF47A73B3FBF0F3C5
:100280000C4A1068B0FBF3F000F0F8FD68B90F2CD1
:1002900001D901200AE0002221464FF0FF3000F092
:1002A000B9FD034B5C60002000E0012010BD00BFE1
:1002B000000000200800002008B5074A136843F03A
:1002C00010031360032000F093FD0020FFF7D0FF20
:1002D00002F09AFB002008BD00200240034A11688A
:1002E000034B1B780B441360704700BF9C00002039
:1002F00000000020014B1868704700BF9C000020E0
:1003000038B50446FFF7F6FF0546B4F1FF3F02D0CB
:10031000044B1B781C44FFF7EDFF401BA042FAD3AF
:1003200038BD00BF0000002038B50268936803F0B4
:100330000303012B01D0002038BD136813F0010F17
:100340002FD0936803F00D03012B09D0436C43F0C9
:1003500010034364836C43F0010383640120EBE7E3
:100360000446936843F002039360036803221A6013
:10037000FFF7C0FF054623689B6813F0010F0ED0FE
:10038000FFF7B8FF401B0228F5D9636C43F0100358
:100390006364A36C43F00103A3640120CCE7002055
:1003A000CAE70020C8E7000003689A6812F00C0F43
:1003B00062D070B50446DA6812F0007F02D0C269DC
:1003C000012A38D060290CD023689A6812F0040FF3
:1003D00007D09A6812F0020F03D19A6842F0100217
:1003E0009A600C290CD023689A6812F0080F07D085
:1003F0009A6812F0020F03D19A6842F020029A60C4
:10040000602935D06C2931D10C25FFF773FF0646E2
:1004100023689B682B422DD0FFF76CFF801B0B28B5
:10042000F6D9636C43F010036364A36C43F00103DB
:10043000A36401201FE08269012AC3D10022196848
:1004400011F0400F0ED10D498A4201D80132F6E772
:10045000636C43F010036364A36C43F00103A36473
:10046000012008E040221A600C21ADE70425CCE70A
:100470000825CAE7002070BD00207047FF930900DF
:1004800038B50268936803F00303012B0DD091681F
:10049000184B19420FD0436C43F010034364836C34
:1004A00043F001038364012038BD136813F0010F8A
:1004B000EDD00020F8E70446936843F00103936011
:1004C000FFF718FF054623681B6813F0010F0ED1D4
:1004D000FFF710FF401B0228F5D9636C43F01003AF
:1004E0006364A36C43F00103A3640120DCE70020F4
:1004F000DAE700BF3F00008030B597B000230093DB
:10050000002800F0F5800446436C13F0100F52D120
:10051000436CABB1002023689A6812F0805F03D06F
:100520009B6813F0005F47D0636C23F0120343F025
:1005300010036364A36C43F00103A36401203BE058
:1005400083640365C36480F8403002F075FA236861
:100550009B6813F0805F01D00020DCE72046FFF7A6
:10056000E3FE636C13F0100FD5D10028D3D1636C78
:1005700023F4885323F0020343F0020363642268E8
:10058000936823F0405393602268936843F080534C
:100590009360584B1B68584AA2FB03239B0C03EB48
:1005A00083035A00009202E0009B013B0093009BF2
:1005B000002BF9D1AFE70020636C13F0100F40F06F
:1005C0008E80002840F08B8023689A6812F0040225
:1005D00040F08580616C21F4817141F00201616419
:1005E000B3F1A04F52D04FF0A0410191996801F0B2
:1005F000030101294DD0019B23B1996801F003014A
:1006000001294BD03D498B6823F4403365682B4367
:100610008B60E1694B03A56B012D01D04FF4805233
:100620001343E2681343A2681343626A012A3AD073
:10063000E26A012A02D0216B0A43134322689168BF
:1006400011F00C0F0BD1D16821F4804121F002018F
:10065000D160A169626B520042EA81321343216882
:10066000CD68274A2A401343CB602369012B2DD044
:100670002268136B23F00F0313630023A364636CDE
:1006800023F0030343F0010363642FE01D4901914C
:10069000ACE71B6813F0010FBBD1ACE71B6813F08C
:1006A000010FB6D1AEE731B9A26A013A43EA42433B
:1006B00043F48033BCE7626C22F0220242F0200255
:1006C0006264A26C42F00102A264B1E721680B6B84
:1006D00023F00F03226A013A13430B63CDE7636CE7
:1006E00023F0120343F010036364012017B030BD00
:1006F0000120FBE70800002083DE1B4300030050BD
:1007000007C0F0FF0001005003689B6813F0040F5E
:1007100072D190F84030012B71D010B504460123FE
:1007200080F84030FFF7ACFE034600285FD1626CD2
:1007300022F4706222F0010242F480726264314A53
:10074000926812F01F0F17D02168B1F1A04F13D09B
:10075000626C42F4801262642B4A91421BD14FF0CA
:10076000A042D26812F0007F15D0626C22F4405291
:1007700042F4805262640EE0626C22F48012626481
:100780002268D26812F0007F05D0626C22F44052D9
:1007900042F480526264626C12F4805F24D0A26CD6
:1007A00022F00602A264002284F8402022681C2164
:1007B0001160144A926812F01F0F0FD0114A92680C
:1007C00002F01F02052A09D00E4A926802F01F02A9
:1007D000092A03D02268B2F1A04F0BD121688A68A0
:1007E00042F004028A6005E00022A264DBE70022F6
:1007F00084F84020184610BD022318467047022393
:10080000FBE700BF000300500001005090F84030AB
:10081000012B1DD010B50446012380F840306C2117
:10082000FFF7C2FD034620B1002284F8402018469D
:1008300010BD2046FFF778FD03460028F4D1626C16
:1008400022F4885222F0010242F001026264EBE7D6
:1008500002231846704700002DE9F0414669082E32
:100860000AD0404B9B6813F01F0F1BD10368DB6855
:1008700013F0010F0DD10C263A4B9B6813F01F0F9C
:1008800020D00368B3F1A04F1CD04FF0A043DF6825
:100890001AE0436C43F020034364002380F84030A7
:1008A00001205AE02F4B9B6813F4404F01D10C26D6
:1008B000E2E7436C43F020034364002380F84030B8
:1008C00001204AE00368DF680D460446FFF712FD89
:1008D000804623681A68324212D1B5F1FF3FF8D042
:1008E0002DB1FFF707FDA0EB0800A842F1D9636C1A
:1008F00043F004036364002384F8403003202CE0B9
:10090000626C42F400726264DA6812F4406F1FD1C4
:1009100017F4005F1CD11A6812F0080F18D09A68FB
:1009200012F0040F0CD1626C22F480726264626C6B
:1009300012F4805F0CD1626C42F00102626407E045
:10094000626C42F020026264A26C42F00102A26476
:1009500017F4804F03D11E600020BDE8F081002015
:10096000FBE700BF000300500368186C70470000ED
:1009700030B496B00022009290F84020012A00F096
:10098000A4810346012280F840200068826812F0AA
:10099000040F40F08F814A68042A31D8046B02EBBF
:1009A000420255001F22AA4024EA02020C68AC4011
:1009B000224302631868826812F00C0F68D10A683B
:1009C000092A4ED9846902EB42021E3A0725954056
:1009D00024EA05048D6805FA02F22243826148691F
:1009E0001C68E268C2F3C102520000FA02F2086910
:1009F0000138032800F28B80DFE800F04068737E46
:100A0000092A0ED8446B02EB420255001E3D1F22FC
:100A1000AA4024EA02020C6804FA05F52A4342635C
:100A2000C8E70E2A0ED8846B02EB420255003C3D0B
:100A30001F22AA4024EA02020C6804FA05F52A43A0
:100A40008263B7E7C46B02EB420255005A3D1F2296
:100A5000AA4024EA02020C6804FA05F52A43C2639C
:100A6000A8E7446902EB42020725954024EA050401
:100A70008D6805FA02F222434261B0E7206E944D80
:100A80000540086842EA8062154345F00045256646
:100A90001868826802F00302012A6BD0CA68012A32
:100AA0006ED0D0F8B0200D680124AC4022EA0402D8
:100AB000C0F8B0200A68102A00F08B80112A00F0DC
:100AC000A980122A00F0AC800020F8E0606E804D12
:100AD0000540086842EA8062154345F000456566B6
:100AE000D6E7A06E7A4D0540086842EA8062154359
:100AF00045F00045A566CBE7E56E754828400D68D2
:100B000042EA8562024342F00042E266C0E7226E9A
:100B100002F0F8420868B2EB806F1CD01868426E91
:100B200002F0F8420C68B2EB846F19D01868826E3C
:100B300002F0F8420C68B2EB846F16D01868C26EEF
:100B400002F0F8420C68B2EB846FA1D1C26E22F0C1
:100B50000042C2669CE7226E22F000422266DDE778
:100B6000426E22F000424266E0E7826E22F00042CE
:100B70008266E3E7026812F0010F8FD000209EE04A
:100B8000D0F8B0200D680124AC402243C0F8B0205A
:100B90000A68092A0ED91D68A86902EB42021B3AAD
:100BA0000724944020EA04008C6804FA02F202430D
:100BB000AA617FE71D686869013202EB42020724DF
:100BC000944020EA04008C6804FA02F202436A614D
:100BD00070E74049896811F4000F7FF46FAF18681F
:100BE000B0F1A04F23D04FF0A0410191816801F0F6
:100BF000030101291ED0019921B18C6804F003047E
:100C0000012C21D0102A24D0112A42D0122A4AD0F5
:100C1000002054E02F49896811F0807FDFD050E731
:100C20002C49896811F4800FD9D0002047E02A4967
:100C30000191DBE7016811F0010FDCD05A6C42F042
:100C400020025A6401203AE0096811F0010FF5D141
:100C5000D8E7B0F1A04FD7D11E498A6842F400020C
:100C60008A601E4A1268A1F14E61A1F58421A1F2A9
:100C70007D41A1FB0212920C02EB82025100009115
:100C800002E0009A013A0092009A002AF9D100206D
:100C900015E0B0F1A04FB9D10E498A6842F08072D8
:100CA0008A6000200BE00B498A6842F480028A6067
:100CB000002004E05A6C42F020025A640120002215
:100CC00083F8402016B030BC70470220FAE700BF1E
:100CD00000F0FF83000300500001005008000020D6
:100CE00070B497B003460268B2F1A04F39D04FF00C
:100CF000A04001900198002872D093F84040012C48
:100D000070D0012483F84040926812F0040F5CD147
:100D1000826812F0040F58D10A68002A30D0324D90
:100D2000AA6822F460424C685E6B44EA463422436F
:100D3000AA601C68A26802F00302012A14D082682B
:100D400002F00302012A15D0274CA26822F4716236
:100D500022F00F020868896801430A43A26000205C
:100D600038E022480190C5E7226812F0010FE6D072
:100D700000202FE0026812F0010FE5D0002029E0EA
:100D800019498A6822F460428A6019688A6802F008
:100D90000302012A0DD0826802F00302012A0ED05C
:100DA00011498A6822F4716222F00F028A600020E1
:100DB00010E00A6812F0010FEDD000200AE002688E
:100DC00012F0010FECD0002004E05A6C42F0200237
:100DD0005A640120002283F8402017B070BC70478D
:100DE0000120FAE70220F8E700030050000100505C
:100DF000074AD36823F4E0631B041B0C000200F4D1
:100E0000E060184340F0BF6040F40030D0607047AD
:100E100000ED00E030B4174BDB68C3F30223C3F1ED
:100E20000704042C28BF04241D1D062D18D9033BDC
:100E30004FF0FF3505FA04F421EA0401994005FA60
:100E400003F322EA0303194300280BDB0901C9B2AB
:100E500000F1604000F5614080F8001330BC70473D
:100E60000023E5E700F00F000901C9B2024B195455
:100E7000F4E700BF00ED00E014ED00E00138B0F150
:100E8000807F0AD2064B5860064AF02182F8231070
:100E90000020986007221A6070470120704700BF49
:100EA00010E000E000ED00E0F0B482B0002336E096
:100EB000032400E00024B4403C430235584E46F879
:100EC0002540584C2568D44304EA05064F6817F4BA
:100ED000803F01D042EA0506524D2E606D6804EA5B
:100EE00005064F6817F4003F01D042EA05064D4D54
:100EF0006E60AD6804EA05064F6817F4801F01D0E4
:100F000042EA0506474DAE60ED682C404E6816F487
:100F1000001F01D042EA0504424AD46001330A6846
:100F200032FA03F478D001249C402240F6D04D6878
:100F3000022D01D0122D10D1DE08083650F826C03F
:100F400003F00705AF000F25BD402CEA050C0D6925
:100F5000BD4045EA0C0540F8265006685F000325B1
:100F6000BD40ED4305EA060C4E6806F00306BE40A0
:100F700046EA0C0606604E6806F1FF3CBCF1010F24
:100F800003D9112E01D0122E10D1866805EA060C65
:100F9000CE68BE4046EA0C068660466826EA04042F
:100FA0004E68C6F300169E4026434660C46825403E
:100FB0008C68BC402C43C4604C6814F0805FADD09A
:100FC000194CA56945F00105A561A46904F0010467
:100FD0000194019C9D08AE1C114C54F8267003F03E
:100FE0000304A6000F24B44027EA0407B0F1904F91
:100FF0003FF460AF0D4CA0420AD004F58064A042DB
:1010000008D004F58064A0423FF452AF052452E7B3
:10101000012450E702244EE702B0F0BC704700BF45
:10102000000001400004014000100240000400489C
:10103000002800F0F58270B582B00446036813F012
:10104000010F3BD0B54B5B6803F00C03042B1ED0A3
:10105000B24B5B6803F00C03082B13D06368B3F545
:10106000803F68D0002B40F0928003F1804303F56D
:1010700004331A6822F480321A601A6822F480223B
:101080001A605DE0A54B5B6813F4803FE6D04FF437
:10109000003393FAA3F3A14B19684FF4003393FA8A
:1010A000A3F3B3FA83F303F01F03012202FA03F35D
:1010B0000B4203D06368002B00F0B482236813F066
:1010C000020F00F0C680954B5B6813F00C0F00F028
:1010D0009C80924B5B6803F00C03082B00F08F8020
:1010E0002369002B00F0F380012292FAA2F3B3FAF5
:1010F00083F303F1845303F584139B001A60FFF715
:10110000F9F80546022393FAA3F3844B19680223E6
:1011100093FAA3F3B3FA83F303F01F03012202FA55
:1011200003F30B4240F0C480FFF7E4F8401B0228B1
:10113000E8D9032083E2794A136843F480331360CB
:10114000764AD36A23F00F03A1680B43D362636826
:10115000002B36D0FFF7CEF805464FF4003393FA54
:10116000A3F36E4B19684FF4003393FAA3F3B3FA69
:1011700083F303F01F03012202FA03F30B429DD114
:10118000FFF7B8F8401B6428E7D9032057E2B3F50E
:10119000A02F09D0614B1A6822F480321A601A68B5
:1011A00022F480221A60CBE703F18043A3F53C339D
:1011B0001A6842F480221A601A6842F480321A6077
:1011C000BEE7FFF797F805464FF4003393FAA3F311
:1011D000524B19684FF4003393FAA3F3B3FA83F335
:1011E00003F01F03012202FA03F30B423FF466AF40
:1011F000FFF780F8401B6428E6D903201FE2474B25
:101200005B6813F4803F7FF46BAF022393FAA3F380
:10121000424B1968022393FAA3F3B3FA83F303F062
:101220001F03012202FA03F30B4204D02369934205
:1012300001D0012003E23948036823F0F803616913
:10124000F82292FAA2F2B2FA82F201FA02F21343FF
:101250000360236813F0080F00F08C80A369002B53
:1012600060D0012191FAA1F2B2FA82F22C4B134420
:101270009B001960FFF73EF80546022393FAA3F29C
:1012800093FAA3F293FAA3F2244A516A93FAA3F3CE
:10129000B3FA83F303F01F03012202FA03F30B42B4
:1012A00068D1FFF727F8401B0228E6D90320C6E1E2
:1012B0001A48036823F0F8036169F82292FAA2F24F
:1012C000B2FA82F201FA02F213430360C1E701238A
:1012D00093FAA3F3B3FA83F303F1845303F584136E
:1012E0009B0000221A60FFF705F80546022393FAD7
:1012F000A3F30A4B1968022393FAA3F3B3FA83F317
:1013000003F01F03012202FA03F30B42A1D0FEF700
:10131000F1FF401B0228E9D9032090E100100240B0
:1013200020819010012292FAA2F2B2FA82F2C04B0E
:1013300013449B0000221A60FEF7DCFF05460223DF
:1013400093FAA3F293FAA3F293FAA3F2B94A516A79
:1013500093FAA3F3B3FA83F303F01F03012202FA13
:1013600003F30B4206D0FEF7C5FF401B0228E6D967
:10137000032064E1236813F0040F00F0B380AD4B49
:10138000DB6913F0805F20D1AA4BDA6942F080520A
:10139000DA61DB6903F080530193019B0125A64BC1
:1013A0001B6813F4807F12D0E368012B23D073BB3A
:1013B00003F1804303F504331A6A22F001021A6232
:1013C0001A6A22F004021A621AE00025E7E79A4A34
:1013D000136843F480731360FEF78CFF0646964B48
:1013E0001B6813F4807FDFD1FEF784FF801B642825
:1013F000F5D9032023E18F4A136A43F001031362F6
:10140000E368002B41D0FEF775FF06462BE0052B65
:1014100009D0884B1A6A22F001021A621A6A22F075
:1014200004021A62ECE7834B1A6A42F004021A6261
:101430001A6A42F001021A62E2E77E4B196A02233D
:1014400093FAA3F3B3FA83F303F01F03012202FA22
:1014500003F3194245D1FEF74DFF801B41F288335B
:10146000984200F2E180022393FAA3F293FAA3F3E5
:10147000B3FA83F35B0943F00203022BDDD00223AE
:1014800093FAA3F36B4B596AD9E7FEF733FF06468D
:1014900015E0684B196A022393FAA3F3B3FA83F3B6
:1014A00003F01F03012202FA03F3194219D0FEF7D9
:1014B00021FF801B41F28833984200F2B78002235B
:1014C00093FAA3F293FAA3F3B3FA83F35B0943F01D
:1014D0000203022BDDD0022393FAA3F3554B596A82
:1014E000D9E7B5BBE369002B00F0A880514A5268E8
:1014F00002F00C02082A00F0A480022B2FD04FF03B
:10150000807393FAA3F3B3FA83F303F1845303F5DF
:1015100084139B0000221A60FEF7ECFE04464FF095
:10152000007393FAA3F3434B19684FF0007393FAD7
:10153000A3F3B3FA83F303F01F03012202FA03F3C8
:1015400019426BD0FEF7D6FE001B0228E7D9032014
:1015500075E0384AD36923F08053D361C2E74FF076
:10156000807393FAA3F3B3FA83F303F1845303F57F
:1015700084139B0000221A60FEF7BCFE05464FF064
:10158000007393FAA3F32B4B19684FF0007393FA8F
:10159000A3F3B3FA83F303F01F03012202FA03F368
:1015A000194206D0FEF7A6FE401B0228E7D9032009
:1015B00045E020494B6823F47413626A206A0243B1
:1015C00013434B604FF0807393FAA3F3B3FA83F3A2
:1015D00003F1845303F584139B0001221A60FEF784
:1015E00089FE04464FF0007393FAA3F3114B196878
:1015F0004FF0007393FAA3F3B3FA83F303F01F03DE
:10160000012202FA03F3194206D1FEF773FE001B12
:101610000228E7D9032012E0002010E000200EE0AD
:101620000120704701200AE0032008E0032006E0C3
:10163000208190100010024000700040002002B095
:1016400070BD0120FBE700BF10B4174B5C6804F0CD
:101650000C03082B26D104F470124FF4701393FA84
:10166000A3F3B3FA83F322FA03F31049C85C0E4BD9
:10167000DB6A03F00F030F2292FAA2F2B2FA82F2AF
:10168000D3400B441A7C14F4803F05D1084B03FB74
:1016900000F05DF8044B7047064BB3FBF2F300FB20
:1016A00003F0F6E70348F4E7001002407035000845
:1016B00000093D0000127A00002800F0C08070B5DB
:1016C0000446614B1B6803F007038B420CD25E4A51
:1016D000136823F007030B431360136803F0070339
:1016E0008B4201D0012070BD236813F0020F06D099
:1016F000564A536823F0F003A068034353600D4635
:10170000236813F0010F5AD06368012B2DD0022BF0
:1017100040D0022292FAA2F24C4A1068022292FAB7
:10172000A2F2B2FA82F202F01F02012101FA02F2E1
:10173000104200F0868045494A6822F003021343B4
:101740004B60FEF7D7FD0646404B5B6803F00C0389
:101750006268B3EB820F32D0FEF7CCFD801B41F202
:1017600088339842F0D90320BDE74FF4003292FA53
:10177000A2F2364A10684FF4003292FAA2F2B2FA9C
:1017800082F202F01F02012101FA02F20242D2D1DA
:101790000120A8E74FF0007292FAA2F22B4A1068DB
:1017A0004FF0007292FAA2F2B2FA82F202F01F0235
:1017B000012101FA02F21042BDD1012093E7224B30
:1017C0001B6803F00703AB420CD91F4A136823F0D0
:1017D00007032B431360136803F00703AB4201D0E8
:1017E000012080E7236813F0040F06D0174A5368DE
:1017F00023F4E063E1680B435360236813F0080FA0
:1018000007D0124A536823F46053216943EAC103A5
:101810005360FFF719FF0D4B5B6803F0F003F022F4
:1018200092FAA2F2B2FA82F2D340094AD35CD840CB
:10183000084B18600020FEF71BFD002053E7012035
:10184000704701204FE700BF002002400010024017
:101850009035000808000020014B1868704700BF51
:101860000800002008B5FFF7F7FF074B5B6803F49B
:10187000E0634FF4E06292FAA2F2B2FA82F2D3404D
:10188000024AD35CD84008BD00100240A0350008D1
:1018900008B5FFF7E1FF074B5B6803F460534FF4B3
:1018A000605292FAA2F2B2FA82F2D340024AD35CB8
:1018B000D84008BD00100240A0350008F0B583B044
:1018C0000446036813F4803F44D05F4BDB6913F098
:1018D000805F6ED15C4BDA6942F08052DA61DB697D
:1018E00003F080530193019B0125584B1B6813F4AF
:1018F000807F60D0544B1B6A13F4407321D0626820
:1019000002F440729A421CD04F48016A21F440769A
:101910004FF4803393FAA3F2B2FA82F24C4F3A4476
:1019200092004FF0010CC2F800C093FAA3F3B3FA8F
:1019300083F33B449B0000221A60066211F0010F02
:101940004DD1414A136A23F4407361680B4313621B
:10195000002D6FD1236813F0010F06D03A4A136BA4
:1019600023F00303A1680B431363236813F0200FD4
:1019700006D0354A136B23F01003E1680B43136361
:10198000236813F0800F06D02F4AD36A23F4F8732C
:1019900021690B43D362236813F4805F51D02A4A34
:1019A000136B23F4807361690B431363002003B04E
:1019B000F0BD002599E7254A136843F4807313604E
:1019C000FEF798FC0646214B1B6813F4807F91D1EB
:1019D000FEF790FC801B6428F5D90320E7E7FEF7AB
:1019E00089FC064614E0184B196A022393FAA3F304
:1019F000B3FA83F303F01F03012202FA03F30B424D
:101A00009FD1FEF777FC801B41F28833984216D8AD
:101A1000022393FAA3F293FAA3F3B3FA83F35B09D5
:101A200043F00203022BDED0022393FAA3F3064B0A
:101A3000596ADAE7D36923F08053D3618AE7032038
:101A4000B5E70020B3E700BF00100240007000407F
:101A50000081901010B4036A046A24F00104046247
:101A6000846924F0F00444EA021223F00A030B43D1
:101A7000826103625DF8044B704710B4036A23F07F
:101A8000100303628469036A24F4704444EA023256
:101A900023F0A00343EA0113826103625DF8044B63
:101AA0007047836823F0700341F007011943816098
:101AB000704770470368224A904206D0B0F1804FC9
:101AC00003D0A2F59432904203D123F070034A6808
:101AD00013431B4A904212D0B0F1804F0FD0A2F5B1
:101AE000943290420BD002F59E32904207D002F51C
:101AF0008062904203D002F58062904203D123F4C9
:101B00004073CA68134323F080034A691343036098
:101B10008B68C3620B688362094B98420BD003F554
:101B2000A053984207D003F58063984203D003F591
:101B30008063984201D10B690363012343617047BD
:101B4000002C0140A8B110B5044690F83D305BB1BF
:101B5000022384F83D30211D2068FFF7ABFF0123ED
:101B600084F83D30002010BD80F83C3000F094FF38
:101B7000EEE701207047A8B110B5044690F83D305B
:101B80005BB1022384F83D30211D2068FFF792FFEE
:101B9000012384F83D30002010BD80F83C30FFF771
:101BA00088FFEEE70120704730B4036A23F0010399
:101BB0000362036A4468826922F4803222F073026D
:101BC0000D682A4323F002038D682B43184DA84269
:101BD0000BD005F5A055A84207D005F58065A842B1
:101BE00003D005F58065A84205D123F00803CD6830
:101BF0002B4323F004030E4DA8420BD005F5A0554E
:101C0000A84207D005F58065A84203D005F5806598
:101C1000A84205D124F440754C692C438D692C43AE
:101C2000446082614A684263036230BC704700BF0F
:101C3000002C014030B4036A23F010030362036AEE
:101C40004468826922F0807222F4E6420D6842EA1A
:101C5000052223F020038D6843EA0513144DA842A2
:101C60001DD0134DA8420BD005F5A055A84207D0B2
:101C700005F58065A84203D005F58065A84207D127
:101C800024F440644D6944EA85048D6944EA85047E
:101C9000446082614A688263036230BC704723F00B
:101CA0008003CD6843EA051323F04003D9E700BF62
:101CB000002C014030B4036A23F480730362036A8A
:101CC0004468C26922F4803222F073020D682A430C
:101CD00023F400738D6843EA0523144DA8421DD0F8
:101CE000124DA8420BD005F5A055A84207D005F526
:101CF0008065A84203D005F58065A84207D124F489
:101D000040544D6944EA05148D6944EA0514446061
:101D1000C2614A68C263036230BC704723F4006347
:101D2000CD6843EA052323F48063D9E7002C014002
:101D300030B4036A23F480530362026A4468C369BF
:101D400023F0807323F4E6430D6843EA052322F46D
:101D500000528D6842EA05320D4DA8420BD005F5C0
:101D6000A055A84207D005F58065A84203D005F527
:101D70008065A84204D124F480444D6944EA851466
:101D80004460C3614B680364026230BC704700BFAB
:101D9000002C014010B4846824F47F4442EA0323F9
:101DA0000B43234383605DF8044B704790F83C304D
:101DB000012B00F0828010B50446012380F83C30EE
:101DC000022380F83D30026890683D4B03409360E9
:101DD0000B68402B5DD010D9702B40D01FD8502BF2
:101DE0004DD0602B34D1CA6849682068FFF745FEA2
:101DF00060212068FFF755FE2AE0102B53D008D948
:101E0000202B55D0302B23D130212068FFF749FEFD
:101E10001EE0EBB900212068FFF743FE18E0B3F5A0
:101E2000805F0ED0B3F5005F12D1CB684A68896835
:101E30002068FFF7AFFF2268936843F48043936004
:101E400006E02268936823F4803323F0070393604D
:101E5000012384F83D30002084F83C0010BDCB689D
:101E60004A6889682068FFF795FF2268936823F421
:101E7000803323F0770343F077039360E8E7CA6881
:101E800049682068FFF7E6FD50212068FFF709FE4A
:101E9000DEE7CA6849682068FFF7DCFD402120685A
:101EA000FFF7FFFDD4E710212068FFF7FAFDCFE729
:101EB00020212068FFF7F5FDCAE70220704700BF28
:101EC0008800FEFF10B4012303FA01F4036A23EA39
:101ED00004030362036A8A40134303625DF8044B00
:101EE0007047000010B5044601220068FFF7EAFFC2
:101EF00023680D4A93420BD002F5A052934207D0BB
:101F000002F58062934203D002F58062934203D1CE
:101F10005A6C42F400425A642268136843F0010389
:101F20001360002010BD00BF002C014030B4036AD4
:101F300023F480330362036A4468426D22F48032E2
:101F400022F070020D682A4323F400338D6843EABF
:101F500005430D4DA8420BD005F5A055A84207D06A
:101F600005F58065A84203D005F58065A84204D137
:101F700024F480344D6944EA0524446042654A688B
:101F80008265036230BC7047002C014030B4036AA4
:101F900023F480130362026A4468436D23F0807364
:101FA00023F4E0430D6843EA052322F400128D6810
:101FB00042EA05520D4DA8420BD005F5A055A842A6
:101FC00007D005F58065A84203D005F58065A842D5
:101FD00004D124F480244D6944EA85244460436597
:101FE0004B68C365026230BC704700BF002C0140E3
:101FF00038B590F83C30012B00F092800D46044635
:10200000012380F83C30022380F83D30142A1ED88A
:10201000DFE802F00B1D1D1D241D1D1D381D1D1D9B
:102020004B1D1D1D5F1D1D1D72000068FFF7BCFDCF
:102030002268936943F0080393612268936923F04F
:10204000040393612268936929690B439361012317
:1020500084F83D30002084F83C0038BD0068FFF76C
:10206000E9FD2268936943F40063936122689369F0
:1020700023F48063936122689369296943EA012309
:102080009361E4E70068FFF715FE2268D36943F027
:102090000803D3612268D36923F00403D361226863
:1020A000D36929690B43D361D1E70068FFF740FE8C
:1020B0002268D36943F40063D3612268D36923F4AF
:1020C0008063D3612268D369296943EA0123D3611C
:1020D000BDE70068FFF72AFF2268536D43F008034D
:1020E00053652268536D23F0040353652268536DD2
:1020F00029690B435365AAE70068FFF747FF226889
:10210000536D43F4006353652268536D23F4806379
:1021100053652268536D296943EA0123536596E7A5
:1021200002209AE790F83C30012B1FD030B40123F5
:1021300080F83C300268536895680D4CA24210D07C
:1021400023F070030C68234325F080048968214341
:10215000536003689960002380F83C30184630BC17
:10216000704723F470034C682343E9E7022070476B
:10217000002C014090F83C30012B3ED010B40123DC
:1021800080F83C30CB6823F440738A68134323F40F
:1021900080634A68134323F400630A68134323F4FB
:1021A00080530A69134323F400534A69134323F409
:1021B00080438A6A134323F40043134323F47023B8
:1021C0008A6943EA024302680D4CA24207D0536475
:1021D000002380F83C3018465DF8044B704723F428
:1021E00070034C6A43EA045323F08073CC692343A1
:1021F00023F00073096A0B43E9E70220704700BF30
:10220000002C014010B504468368026913434269FB
:102210001343C269134301680868654A02401343C7
:102220000B602268536823F44053E1680B4353600A
:10223000A369226A1A4321688B6823F4306313432D
:102240008B6023685B4A934215D05B4A934229D046
:1022500002F58062934221D01022E169B1F5004F6E
:1022600022D0082A00F2A280DFE802F066727EA087
:102270008AA0A0A0960002F55842126B02F0030259
:10228000032A09D8DFE802F00204060C0022E4E782
:102290000422E2E70822E0E71022DEE70022DCE782
:1022A0000222DAE70022D8E7082A42D8DFE802F063
:1022B000051722412D4141413800FFF7D3FA6268EA
:1022C000530803EB4003B3FBF2F39BB2002023F06F
:1022D0000F02C3F3420313432268D36010BDFFF71C
:1022E000D7FA6268530803EB4003B3FBF2F39BB2E7
:1022F0000020ECE76268530803F5740303F51053FC
:10230000B3FBF2F39BB20020E1E7FFF79DF96268AF
:10231000530803EB4003B3FBF2F39BB20020D6E774
:102320006268530803F58033B3FBF2F39BB20020DD
:10233000CDE701200023CAE7FFF794FA636800EBBA
:102340005300B0FBF3F0236880B2D8600020C5E7EB
:10235000FFF79EFA636800EB5300B0FBF3F02368CD
:1023600080B2D8600020B9E761684A0802F5F4023B
:1023700002F59052B2FBF1F292B2DA600020ADE7C2
:10238000FFF762F9636800EB5300B0FBF3F02368DA
:1023900080B2D8600020A1E761684A0802F50042D7
:1023A000B2FBF1F292B2DA60002097E7012095E7E4
:1023B000F369FFEF0038014000440040436A13F026
:1023C000010F06D00268536823F40033816A0B437F
:1023D0005360436A13F0020F06D00268536823F477
:1023E0008033C16A0B435360436A13F0040F06D075
:1023F0000268536823F48023016B0B435360436AE4
:1024000013F0080F06D00268536823F40043416BB1
:102410000B435360436A13F0100F06D002689368B1
:1024200023F48053816B0B439360436A13F0200FB6
:1024300006D00268936823F40053C16B0B4393608A
:10244000436A13F0400F0AD00268536823F48013E4
:10245000016C0B435360036CB3F5801F0BD0436AD0
:1024600013F0800F06D00268536823F40023816CB8
:102470000B43536070470268536823F4C003416CF8
:102480000B435360EBE72DE9F04105460F46164636
:102490009846069C2B68DB6937EA03030CBF0123CF
:1024A0000023B3421DD1B4F1FF3FF3D02CB1FDF7AF
:1024B00021FFA0EB0800A042ECD92A68136823F49E
:1024C000D07313602A68936823F00103936020237C
:1024D00085F8693085F86A30002385F86830032074
:1024E00000E00020BDE8F0812DE9F04182B01E46F9
:1024F00090F86930DBB2202B4ED104460D46904651
:1025000000294ED0002A4ED090F86830012B4CD0D4
:10251000012380F868300023C366212380F86930E6
:10252000FDF7E8FE0746A4F85080A4F8528003E0C7
:1025300023682A781A850135B4F852309BB2DBB192
:10254000B4F85230013B9BB2A4F8523000963B469F
:10255000002280212046FFF796FF40BBA368B3F519
:10256000805FE5D12369002BE2D1226835F8023B78
:10257000C3F308031385DFE700963B4600224021A2
:102580002046FFF780FF034698B9202284F869208F
:10259000002284F8682000E00223184602B0BDE85B
:1025A000F0810123F9E70123F7E70223F5E703238D
:1025B000F3E70323F1E730B583B004460023C36695
:1025C000FDF798FE054623681B6813F0080F0ED12F
:1025D00023681B6813F0040F17D1202384F8693097
:1025E00084F86A30002084F8680003B030BD6FF0D2
:1025F0007E430093034600224FF400112046FFF76C
:1026000042FF0028E4D00320EFE76FF07E43009301
:102610002B4600224FF480012046FFF734FF0028AC
:10262000DBD00320E1E778B310B5044690F86930B9
:102630000BB3242384F869302268136823F0010364
:1026400013602046FFF7DEFD012813D0636ABBB993
:102650002268536823F4904353602268936823F000
:102660002A0393602268136843F001031360204635
:10267000FFF7A1FF10BD80F8683000F079FAD8E7C5
:102680002046FFF79BFEE3E70120704784B00F4B25
:102690005A6942F480025A615A6902F48002019236
:1026A000019A5A6942F400325A615A6902F40032BE
:1026B0000292029A5A6942F480225A615B6903F4D9
:1026C00080230393039B04B0704700BF00100240B7
:1026D00008B50948094B03604FF4165343600023C3
:1026E0008360C36003610C2242618361C361036242
:1026F0004362FFF798FF08BD7401002000440040CA
:1027000030B58FB000240A940B940C940D94079468
:1027100008940994009401940294039404940594F9
:102720000694174D4FF080432B6040F271236B608D
:10273000AC60FF23EB602C61AC612846FFF702FA26
:102740004FF480530A930AA92846FFF72FFB284627
:10275000FFF711FA0794099407A92846FFF7E2FC4E
:10276000602300930194029404940422694628464D
:10277000FFF73EFC284600F0B5F90FB030BD00BFB2
:102780003401002070B58AB000240794089409949D
:10279000019402940394049405940694144D4FF00C
:1027A000A0432B604FF480336B60AC602C61EC6114
:1027B0006C622C630126EE62EC602E626C63042373
:1027C0006B61AC61AC632846FDF796FE079407A9E0
:1027D0002846FEF785FA0196029604940394059420
:1027E000069401A92846FEF7C3F80AB070BD00BFE1
:1027F000A000002030B59BB00024169417941894C4
:1028000019941394149415940C940D940E940F949D
:102810001094119412942C22214601A800F08EFAF3
:10282000224D234B2B604FF41C736B60AC60FF2375
:10283000EB602C616C61AC612846FFF783F94FF4C3
:102840008053169316A92846FFF7B0FA2846FFF7DB
:1028500092F913941494159413A92846FFF762FC77
:1028600060230C930D940E940F9410941194129471
:1028700022460CA92846FFF7BBFB0194029403945F
:10288000049405944FF400530693079408944FF072
:10289000007309930A940B9401A92846FFF76AFC78
:1028A000284600F01FF91BB030BD00BFF400002027
:1028B000002C014010B596B0242200210DA800F094
:1028C0003DFA00240794089409940A940B94019407
:1028D0000294039404940594069402230C93012318
:1028E0001093102311930CA8FEF7A2FB0F2307935C
:1028F000089409940A940B94214607A8FEF7DCFE7D
:102900004FF480530193069401A8FEF7D7FF16B049
:1029100010BD0000F0B58BB0FDF7CEFCFFF7CAFF8D
:10292000FFF7B4FEFFF7D4FEFFF7EAFEFFF72AFF3A
:10293000FFF760FF1E22002102A800F0FFF900212E
:102940002D48FFF7CFFA01273C46002522E030460C
:10295000FEF70AF885B228E0274B1B681B225A6352
:102960000520FDF7CDFC36E0234B1B681E225A6381
:102970000520FDF7C5FC30E01F4B1B680F225A6392
:102980000520FDF7BDFC2AE0013401372CE0032CC3
:1029900000DD0124194E3046FDF7B6FE4FF47A7182
:1029A0003046FDF759FF0028D1D01448FDF72EFF1F
:1029B000009723462A46124902A800F0C7F94FF6AD
:1029C000FF731E2202A90F48FFF78EFD0A20FDF7B4
:1029D00097FC012CC0D0022CC6D0032CCCD0B5F56E
:1029E000FA6F01D2012FCFD0B5F5FA6FCFD9022FF0
:1029F000CDD10127CBE700BFF4000020A0000020CC
:102A0000A83500087401002082B00A4B9A6942F090
:102A100001029A619A6902F001020092009ADA6951
:102A200042F08052DA61DB6903F080530193019B2D
:102A300002B070470010024000B589B00023039334
:102A400004930593069307930368B3F1A04F02D054
:102A500009B05DF804FB03F1704303F504335A69D0
:102A600042F080525A615A6902F080520192019AF2
:102A70005A6942F400325A615B6903F400330293ED
:102A8000029B012303930323049303A94FF0904077
:102A9000FEF70AFADCE7000082B003680F4A9342AF
:102AA00004D0B3F1804F0CD002B070470C4B9A6940
:102AB00042F400629A619B6903F400630093009BF7
:102AC000F2E703F50433DA6942F00102DA61DB6907
:102AD00003F001030193019BE6E700BF002C0140D6
:102AE0000010024000B589B00023039304930593BE
:102AF0000693079303681B4A934205D0B3F1804FB6
:102B000019D009B05DF804FB174B5A6942F4003242
:102B10005A615B6903F400330193019B4FF48073A6
:102B20000393022304930623079303A94FF09040D5
:102B3000FEF7BAF9E5E703F504335A6942F4802257
:102B40005A615B6903F480230293029B0823039379
:102B5000022304930123079303A90448FEF7A4F971
:102B6000CFE700BF002C01400010024000040048E5
:102B700000B589B00023039304930593069307934C
:102B80000268144B9A4202D009B05DF804FB03F5C9
:102B9000E633DA6942F40032DA61DA6902F40032CB
:102BA0000192019A5A6942F400325A615B6903F456
:102BB00000330293029B48F204030393022304931D
:102BC000032306930723079303A94FF09040FEF7D2
:102BD0006BF9D9E7004400407047FEE7FEE7FEE7E7
:102BE000FEE770477047704708B5FDF777FB08BDF3
:102BF00008B503460B4A126842B10A4A10680344FA
:102C00006A46934206D8074A136008BD054A06493A
:102C10001160F2E700F068F80C2303604FF0FF301A
:102C2000F3E700BF8C000020E80100201549D1F82F
:102C3000883043F47003C1F88830134B1A6842F0AF
:102C400001021A605868114A02405A601A6822F05C
:102C5000847222F480321A601A6822F480221A6088
:102C60005A6822F4FE025A60DA6A22F00F02DA622F
:102C7000186B074A02401A6300229A604FF0006303
:102C80008B60704700ED00E0001002400CC07FF840
:102C9000CCFC00FFDFF834D0002103E00C4B5B5884
:102CA000435004310B480C4B42189A42F6D30B4A5E
:102CB00002E0002342F8043B094B9A42F9D3FFF7A4
:102CC000B5FF00F017F8FFF725FEFEE70030002003
:102CD0000036000800000020700000207000002076
:102CE000E8010020FEE70000014B1868704700BFB4
:102CF0000C00002070B50D4E0D4CA41BA410002537
:102D0000A54209D10B4E0C4C00F026FCA41BA410CC
:102D10000025A54205D170BD56F8253098470135EC
:102D2000EEE756F8253098470135F2E7F835000808
:102D3000F8350008F8350008FC3500080244034661
:102D4000934200D1704703F8011BF9E70EB400B5B8
:102D50009CB01DAB029006906FF0004109480791AE
:102D60000491094953F8042B05910068019302A9C5
:102D700000F066F8029B00221A701CB05DF804EBAC
:102D800003B070470C0000200802FFFF2DE9F04758
:102D90008E689E4282460C469046994637D88A896C
:102DA00012F4906F31D0256809696F1A65690223A2
:102DB00005EB450595FBF3F509F101033B449D4205
:102DC00038BF1D46530530D5294600F02BFB06467B
:102DD00050B90C23CAF80030A38943F04003A38103
:102DE0004FF0FF30BDE8F0873A46216900F0A8FABD
:102DF000A38923F4906343F08003A3812661656176
:102E00003E44ED1B2660A5604E464E4500D94E4619
:102E100032464146206800F09EFAA3689B1BA360DF
:102E200023681E4426600020DCE72A4600F054FB9D
:102E300006460028E2D12169504600F0A5FAC8E70D
:102E40002DE9F04F1D468B891F069DB080460C462C
:102E500016460FD50B696BB9402100F0E3FA2060EC
:102E6000206128B90C23C8F800304FF0FF30C8E0CB
:102E7000402363610023099320238DF829303023F8
:102E80008DF82A3003954FF0010B37463D4615F873
:102E9000013B0BB1252B3ED1B7EB060A0BD05346B5
:102EA000324621464046FFF771FF013000F0A48012
:102EB000099B534409933B78002B00F09D8000232D
:102EC0004FF0FF32CDE90523049307938DF853307B
:102ED0001A932F46052217F8011B5048FDF778F981
:102EE000049BD0B9D90644BF20228DF853201A077D
:102EF00044BF2B228DF853202A782A2A15D0079A0E
:102F00002F4600200A25394611F8013B303B092B9A
:102F10004DD9B8B10FE02F46B8E7404A801A0BFAF6
:102F200000F0184304903D46D3E7039A111D126840
:102F30000391002A01DB079204E0524243F00203AE
:102F4000079204933B782E2B0CD17B782A2B33D11C
:102F5000039B1A1D1B680392002BB8BF4FF0FF3371
:102F6000023705932E4D397803222846FDF730F9B4
:102F700038B14023401B03FA00F0049B03430137A0
:102F80000493397827488DF8281006227E1CFDF717
:102F90001FF9002838D0244B13BB039B073323F0C1
:102FA000070308330393099B4B4409936DE705FB23
:102FB000023201200F46A6E7002301370593194688
:102FC0000A25384610F8012B303A092A03D9002B7C
:102FD000C8D00591C6E705FB012101230746F0E7AC
:102FE00003AB00932246114B04A94046AFF3008087
:102FF000B0F1FF3F8146D6D1A3895B063FF535AFDF
:1030000009981DB0BDE8F08F03AB00932246074B33
:1030100004A9404600F082F8EAE700BFC435000882
:10302000CA350008CE350008000000008D2D0008CC
:103030002DE9F04791461F468A680B69DDF820802C
:103040009342B8BF1346C9F8003091F843200646B2
:103050000C4612B10133C9F800302368990642BF0B
:10306000D9F800300233C9F80030256815F006059C
:1030700007D104F1190AE368D9F800209B1AAB4282
:1030800028DC94F843302268003318BF01239206ED
:103090002DD404F1430239463046C047013020D0D8
:1030A0002368E568D9F8002003F00603042B08BF65
:1030B000AD1AA36822690CBF25EAE5750025934285
:1030C000C4BF9B1AED184FF000091A344D451AD1B0
:1030D000002008E00123524639463046C0470130FF
:1030E00003D14FF0FF30BDE8F0870135C3E7E118A9
:1030F0005A1C302081F84300224494F8451082F88D
:1031000043100233C5E70123224639463046C04703
:103110000130E6D009F10109D8E700002DE9F043BC
:1031200001F1430C0C46097E85B06E291746064610
:1031300098460C9A00F0B38022D8632936D00AD87A
:10314000002900F0B980582900F0838004F142057D
:1031500084F8421032E0642901D06929F6D1206850
:103160001368050603F104012AD51B681160002BC2
:1031700003DA2D225B4284F843206F480A2239E0AB
:10318000732900F09D8008D86F2920D07029DDD1E7
:10319000236843F02003236003E0752917D07829C2
:1031A000D4D1782384F84530644855E01368191D5C
:1031B0001B68116004F1420584F8423001238CE061
:1031C0001B68116010F0400F18BF1BB2CFE71368E7
:1031D0002568181D1060280601D51B6802E06806E6
:1031E000FBD51B8854486F2914BF0A2208220021EE
:1031F00084F843106568A560002DC0F295802168B1
:1032000021F004012160002B3DD1002D40F08E8083
:103210006546082A0BD12368DB0708D52369626855
:103220009A42DEBF302305F8013C05F1FF35ACEBD7
:1032300005032361CDF800803B4603AA21463046B2
:10324000FFF7F6FE01304DD14FF0FF3005B0BDE87D
:10325000F083394884F84510136821681D1D1B68E8
:1032600015600A060BD5CA0744BF41F02001216052
:103270001BB9226822F0200222601022B7E74D0617
:1032800048BF9BB2EFE76546B3FBF2F102FB113397
:10329000C35C05F8013D0B460029F5D1B9E7136879
:1032A00025686169181D106028061B6801D5196022
:1032B00002E06A06FBD51980002323616546B9E761
:1032C0001368191D11601D68626800212846FCF70B
:1032D0007FFF08B1401B606063682361002384F8AE
:1032E0004330A7E723692A4639463046C0470130B4
:1032F000AAD023689B0713D4E068039B9842B8BF09
:103300001846A3E701234A4639463046C0470130F4
:103310009AD00135E368039A9B1AAB42F2DCEBE7E3
:10332000002504F11909F5E7002BACD1037884F8E6
:10333000423004F142056CE7D5350008E635000857
:1033400010B5431E0A44914200D110BD11F8014B43
:1033500003F8014FF7E7884210B501EB020307D8E5
:10336000421E99420AD011F8014B02F8014FF8E7CA
:103370008342F5D98118D21AD34200D110BD13F877
:10338000014D01F8014DF7E738B50546002945D054
:1033900051F8043C0C1F002BB8BFE41800F0D2F821
:1033A0001F4A1368104633B9636014602846BDE8AD
:1033B000384000F0C8B8A3420CD921686218934283
:1033C00004BF1A685B68636004BF5218226004601F
:1033D000ECE713465A680AB1A242FAD9196858189C
:1033E000A0420BD120680144581882421960DDD1F7
:1033F000106852685A6001441960D7E702D90C235B
:103400002B60D3E7206821188A4204BF11685268F4
:10341000626004BF091821605C60C7E738BD00BF67
:103420009400002070B5CD1C25F0030508350C2D47
:1034300038BF0C25002D064601DBA94203D90C2319
:103440003360002070BD00F07DF8214A14682146E9
:1034500091B9204C23681BB9304600F063F8206016
:103460002946304600F05EF8431C24D10C2333601B
:10347000304600F068F8E4E70B685B1B18D40B2BB0
:103480000FD90B60CD50CC18304600F05CF804F139
:103490000B00231D20F00700C31AD3D05A42E2507C
:1034A000D0E78C424B6816BF636013600C46EBE7B5
:1034B0000C464968CCE7C41C24F00304A04205D0A4
:1034C000211A304600F02EF80130CFD02560DBE71E
:1034D0009400002098000020F8B5074614460E46D8
:1034E00021B91146BDE8F840FFF79CBF22B9FFF7AC
:1034F0004BFF25462846F8BD00F026F8A0420FD223
:1035000021463846FFF78EFF05460028F2D03146A7
:103510002246FFF715FF31463846FFF735FFE9E74A
:103520003546E7E738B5064C0023054608462360D4
:10353000FFF75EFB431C02D1236803B12B6038BD4B
:10354000E40100207047704751F8043C181F002B1D
:10355000BCBF0B58C0187047F8B500BFF8BC08BC1A
:103560009E467047F8B500BFF8BC08BC9E46704741
:1035700002030405060708090A0B0C0D0E0F1010B4
:103580000102030405060708090A0B0C0D0E0F10B3
:103590000000000000000000010203040607080903
:1035A000000000000102030476616C75653A256431
:1035B0002073773A2564207365743A2564200D0AD8
:1035C00000000000232D302B2000686C4C00656645
:1035D0006745464700303132333435363738394164
:1035E000424344454600303132333435363738397A
:0835F00061626364656600007E
:0435F800B501000811
:0435FC009101000831
:10360000010000001000000000127A0010000020ED
:1036100000000000000000000000000000000000AA
:10362000000000000000000000000000000000009A
:10363000000000000000000000000000000000008A
:10364000000000000000000000000000000000007A
:10365000000000000000000000000000000000006A
:10366000000000000000000000000000000000005A
:0400000508002C952E
:00000001FF
