:020000040800F2
:10000000003000202D1B0008AD1A0008AF1A0008B0
:10001000B11A0008B31A0008B51A00080000000061
:10002000000000000000000000000000B71A0008F7
:10003000B91A000800000000BB1A0008BD1A000829
:100040007D1B00087D1B00087D1B00087D1B000830
:100050007D1B00087D1B00087D1B00087D1B000820
:100060007D1B00087D1B00087D1B00087D1B000810
:100070007D1B00087D1B00087D1B00087D1B000800
:100080007D1B00087D1B00087D1B00087D1B0008F0
:100090007D1B00087D1B00087D1B00087D1B0008E0
:1000A0007D1B00087D1B00087D1B00087D1B0008D0
:1000B0007D1B00087D1B0008000000007D1B000860
:1000C0007D1B000800000000000000007D1B0008F0
:1000D000000000007D1B00087D1B00087D1B000840
:1000E0007D1B00087D1B00080000000000000000D0
:1000F0000000000000000000000000000000000000
:1001000000000000000000000000000000000000EF
:1001100000000000000000007D1B00087D1B00089F
:1001200000000000000000000000000000000000CF
:1001300000000000000000000000000000000000BF
:100140007D1B00087D1B000800000000000000006F
:10015000000000000000000000000000000000009F
:10016000000000000000000000000000000000008F
:10017000000000000000000000000000000000007F
:08018000000000007D1B0008D7
:1001880010B5054C237833B9044B13B10448AFF3C9
:1001980000800123237010BD0C0000200000000027
:1001A800D81B000808B5034B1BB103490348AFF33C
:1001B800008008BD0000000010000020D81B0008C7
:1001C80010B504460E4B18784FF47A73B3FBF0F36E
:1001D8000C4A1068B0FBF3F000F094F868B90F2CE3
:1001E80001D901200AE0002221464FF0FF3000F03B
:1001F80055F8034B5C60002000E0012010BD00BFF3
:10020800000000200800002008B5074A136843F0E2
:1002180010031360032000F02FF80020FFF7D0FF31
:1002280001F0BCFB002008BD00200240034A116811
:10023800034B1B780B441360704700BF2800002055
:1002480000000020014B1868704700BF28000020FC
:1002580038B50446FFF7F6FF0546B4F1FF3F02D074
:10026800044B1B781C44FFF7EDFF401BA042FAD358
:1002780038BD00BF00000020074AD36823F4E063BC
:100288001B041B0C000200F4E060184340F0BF6040
:1002980040F40030D060704700ED00E030B4174BF8
:1002A800DB68C3F30223C3F10704042C28BF04242A
:1002B8001D1D062D18D9033B4FF0FF3505FA04F430
:1002C80021EA0401994005FA03F322EA03031943DA
:1002D80000280BDB0901C9B200F1604000F561405C
:1002E80080F8001330BC70470023E5E700F00F00EA
:1002F8000901C9B2024B1954F4E700BF00ED00E050
:1003080014ED00E00138B0F1807F0AD2064B586046
:10031800064AF02182F823100020986007221A600C
:1003280070470120704700BF10E000E000ED00E0DA
:10033800F0B482B0002336E0032400E00024B44087
:100348003C430235584E46F82540584C2568D4435E
:1003580004EA05064F6817F4803F01D042EA050613
:10036800524D2E606D6804EA05064F6817F4003F89
:1003780001D042EA05064D4D6E60AD6804EA0506F7
:100388004F6817F4801F01D042EA0506474DAE605A
:10039800ED682C404E6816F4001F01D042EA0504AF
:1003A800424AD46001330A6832FA03F478D001244F
:1003B8009C402240F6D04D68022D01D0122D10D15C
:1003C800DE08083650F826C003F00705AF000F25F1
:1003D800BD402CEA050C0D69BD4045EA0C0540F806
:1003E800265006685F000325BD40ED4305EA060C6C
:1003F8004E6806F00306BE4046EA0C0606604E68E4
:1004080006F1FF3CBCF1010F03D9112E01D0122EC9
:1004180010D1866805EA060CCE68BE4046EA0C068E
:100428008660466826EA04044E68C6F300169E40B5
:1004380026434660C46825408C68BC402C43C46091
:100448004C6814F0805FADD0194CA56945F00105E2
:10045800A561A46904F001040194019C9D08AE1CE7
:10046800114C54F8267003F00304A6000F24B4407E
:1004780027EA0407B0F1904F3FF460AF0D4CA0425B
:100488000AD004F58064A04208D004F58064A04234
:100498003FF452AF052452E7012450E702244EE707
:1004A80002B0F0BC704700BF0000014000040140EA
:1004B8000010024000040048002800F0F58270B5E2
:1004C80082B00446036813F0010F3BD0B54B5B685C
:1004D80003F00C03042B1ED0B24B5B6803F00C0333
:1004E800082B13D06368B3F5803F68D0002B40F029
:1004F800928003F1804303F504331A6822F48032B2
:100508001A601A6822F480221A605DE0A54B5B68C5
:1005180013F4803FE6D04FF4003393FAA3F3A14BD2
:1005280019684FF4003393FAA3F3B3FA83F303F093
:100538001F03012202FA03F30B4203D06368002B66
:1005480000F0B482236813F0020F00F0C680954BC8
:100558005B6813F00C0F00F09C80924B5B6803F013
:100568000C03082B00F08F802369002B00F0F38028
:10057800012292FAA2F3B3FA83F303F1845303F549
:1005880084139B001A60FFF75DFE0546022393FA69
:10059800A3F3844B1968022393FAA3F3B3FA83F302
:1005A80003F01F03012202FA03F30B4240F0C48058
:1005B800FFF748FE401B0228E8D9032083E2794A66
:1005C800136843F480331360764AD36A23F00F0329
:1005D800A1680B43D3626368002B36D0FFF732FE65
:1005E80005464FF4003393FAA3F36E4B19684FF4A2
:1005F800003393FAA3F3B3FA83F303F01F03012242
:1006080002FA03F30B429DD1FFF71CFE401B64283E
:10061800E7D9032057E2B3F5A02F09D0614B1A6838
:1006280022F480321A601A6822F480221A60CBE71A
:1006380003F18043A3F53C331A6842F480221A6020
:100648001A6842F480321A60BEE7FFF7FBFD0546E0
:100658004FF4003393FAA3F3524B19684FF4003365
:1006680093FAA3F3B3FA83F303F01F03012202FA08
:1006780003F30B423FF466AFFFF7E4FD401B642829
:10068800E6D903201FE2474B5B6813F4803F7FF4F1
:100698006BAF022393FAA3F3424B1968022393FA30
:1006A800A3F3B3FA83F303F01F03012202FA03F35F
:1006B8000B4204D02369934201D0012003E2394858
:1006C800036823F0F8036169F82292FAA2F2B2FAF9
:1006D80082F201FA02F213430360236813F0080F51
:1006E80000F08C80A369002B60D0012191FAA1F25F
:1006F800B2FA82F22C4B13449B001960FFF7A2FD5B
:100708000546022393FAA3F293FAA3F293FAA3F20B
:10071800244A516A93FAA3F3B3FA83F303F01F034D
:10072800012202FA03F30B4268D1FFF78BFD401B4D
:100738000228E6D90320C6E11A48036823F0F80323
:100748006169F82292FAA2F2B2FA82F201FA02F28E
:1007580013430360C1E7012393FAA3F3B3FA83F3C6
:1007680003F1845303F584139B0000221A60FFF7FA
:1007780069FD0546022393FAA3F30A4B196802237D
:1007880093FAA3F3B3FA83F303F01F03012202FAE7
:1007980003F30B42A1D0FFF755FD401B0228E9D90E
:1007A800032090E10010024020819010012292FA6B
:1007B800A2F2B2FA82F2C04B13449B0000221A60E4
:1007C800FFF740FD0546022393FAA3F293FAA3F23A
:1007D80093FAA3F2B94A516A93FAA3F3B3FA83F3EB
:1007E80003F01F03012202FA03F30B4206D0FFF7BE
:1007F80029FD401B0228E6D9032064E1236813F091
:10080800040F00F0B380AD4BDB6913F0805F20D19B
:10081800AA4BDA6942F08052DA61DB6903F080534F
:100828000193019B0125A64B1B6813F4807F12D00E
:10083800E368012B23D073BB03F1804303F5043332
:100848001A6A22F001021A621A6A22F004021A6273
:100858001AE00025E7E79A4A136843F480731360A7
:10086800FFF7F0FC0646964B1B6813F4807FDFD138
:10087800FFF7E8FC801B6428F5D9032023E18F4AA1
:10088800136A43F001031362E368002B41D0FFF7BA
:10089800D9FC06462BE0052B09D0884B1A6A22F0B2
:1008A80001021A621A6A22F004021A62ECE7834B08
:1008B8001A6A42F004021A621A6A42F001021A62C3
:1008C800E2E77E4B196A022393FAA3F3B3FA83F3A0
:1008D80003F01F03012202FA03F3194245D1FFF77F
:1008E800B1FC801B41F28833984200F2E180022378
:1008F80093FAA3F293FAA3F3B3FA83F35B0943F0F1
:100908000203022BDDD0022393FAA3F36B4B596A3F
:10091800D9E7FFF797FC064615E0684B196A0223EA
:1009280093FAA3F3B3FA83F303F01F03012202FA45
:1009380003F3194219D0FFF785FC801B41F2883375
:10094800984200F2B780022393FAA3F293FAA3F332
:10095800B3FA83F35B0943F00203022BDDD00223D1
:1009680093FAA3F3554B596AD9E7B5BBE369002B52
:1009780000F0A880514A526802F00C02082A00F0E0
:10098800A480022B2FD04FF0807393FAA3F3B3FA0D
:1009980083F303F1845303F584139B0000221A6048
:1009A800FFF750FC04464FF0007393FAA3F3434B50
:1009B80019684FF0007393FAA3F3B3FA83F303F0C3
:1009C8001F03012202FA03F319426BD0FFF73AFC26
:1009D800001B0228E7D9032075E0384AD36923F0C1
:1009E8008053D361C2E74FF0807393FAA3F3B3FA4D
:1009F80083F303F1845303F584139B0000221A60E8
:100A0800FFF720FC05464FF0007393FAA3F32B4B36
:100A180019684FF0007393FAA3F3B3FA83F303F062
:100A28001F03012202FA03F3194206D0FFF70AFC5A
:100A3800401B0228E7D9032045E020494B6823F4EE
:100A48007413626A206A024313434B604FF0807349
:100A580093FAA3F3B3FA83F303F1845303F58413EE
:100A68009B0001221A60FFF7EDFB04464FF000736C
:100A780093FAA3F3114B19684FF0007393FAA3F399
:100A8800B3FA83F303F01F03012202FA03F31942B6
:100A980006D1FFF7D7FB001B0228E7D9032012E095
:100AA800002010E000200EE00120704701200AE03D
:100AB800032008E0032006E0208190100010024087
:100AC80000700040002002B070BD0120FBE700BFAD
:100AD80010B4174B5C6804F00C03082B26D104F4FF
:100AE80070124FF4701393FAA3F3B3FA83F322FA54
:100AF80003F31049C85C0E4BDB6A03F00F030F22A7
:100B080092FAA2F2B2FA82F2D3400B441A7C14F49D
:100B1800803F05D1084B03FB00F05DF8044B70479C
:100B2800064BB3FBF2F300FB03F0F6E70348F4E7E8
:100B380000100240F01B000800093D0000127A0076
:100B4800002800F0C08070B50446614B1B6803F0B4
:100B580007038B420CD25E4A136823F007030B434A
:100B68001360136803F007038B4201D0012070BDA6
:100B7800236813F0020F06D0564A536823F0F00397
:100B8800A068034353600D46236813F0010F5AD041
:100B98006368012B2DD0022B40D0022292FAA2F2D8
:100BA8004C4A1068022292FAA2F2B2FA82F202F0D9
:100BB8001F02012101FA02F2104200F08680454925
:100BC8004A6822F0030213434B60FFF73BFB0646DB
:100BD800404B5B6803F00C036268B3EB820F32D0C2
:100BE800FFF730FB801B41F288339842F0D903208D
:100BF800BDE74FF4003292FAA2F2364A10684FF479
:100C0800003292FAA2F2B2FA82F202F01F02012135
:100C180001FA02F20242D2D10120A8E74FF0007295
:100C280092FAA2F22B4A10684FF0007292FAA2F2DE
:100C3800B2FA82F202F01F02012101FA02F2104216
:100C4800BDD1012093E7224B1B6803F00703AB4299
:100C58000CD91F4A136823F007032B43136013684A
:100C680003F00703AB4201D0012080E7236813F0AB
:100C7800040F06D0174A536823F4E063E1680B4376
:100C88005360236813F0080F07D0124A536823F4FF
:100C98006053216943EAC1035360FFF719FF0D4B05
:100CA8005B6803F0F003F02292FAA2F2B2FA82F241
:100CB800D340094AD35CD840084B18600020FFF79E
:100CC8007FFA002053E70120704701204FE700BF5B
:100CD8000020024000100240101C000808000020FC
:100CE800014B1868704700BF0800002008B5FFF7DF
:100CF800F7FF074B5B6803F4E0634FF4E06292FA96
:100D0800A2F2B2FA82F2D340024AD35CD84008BDBC
:100D180000100240201C000808B5FFF7E1FF074B50
:100D28005B6803F460534FF4605292FAA2F2B2FA8D
:100D380082F2D340024AD35CD84008BD001002407A
:100D4800201C000810B4036A046A24F00104046239
:100D5800846924F0F00444EA021223F00A030B43E6
:100D6800826103625DF8044B704710B4036A23F094
:100D7800100303628469036A24F4704444EA02326B
:100D880023F0A00343EA0113826103625DF8044B78
:100D98007047836823F0700341F0070119438160AD
:100DA800704770470368224A904206D0B0F1804FDE
:100DB80003D0A2F59432904203D123F070034A681D
:100DC80013431B4A904212D0B0F1804F0FD0A2F5C6
:100DD800943290420BD002F59E32904207D002F531
:100DE8008062904203D002F58062904203D123F4DE
:100DF8004073CA68134323F080034A6913430360AE
:100E08008B68C3620B688362094B98420BD003F569
:100E1800A053984207D003F58063984203D003F5A6
:100E28008063984201D10B690363012343617047D2
:100E3800002C0140A8B110B5044690F83D305BB1D4
:100E4800022384F83D30211D2068FFF7ABFF012302
:100E580084F83D30002010BD80F83C3000F0B6FD2D
:100E6800EEE701207047A8B110B5044690F83D3070
:100E78005BB1022384F83D30211D2068FFF792FF03
:100E8800012384F83D30002010BD80F83C30FFF786
:100E980088FFEEE70120704730B4036A23F00103AE
:100EA8000362036A4468826922F4803222F0730282
:100EB8000D682A4323F002038D682B43184DA8427E
:100EC8000BD005F5A055A84207D005F58065A842C6
:100ED80003D005F58065A84205D123F00803CD6845
:100EE8002B4323F004030E4DA8420BD005F5A05563
:100EF800A84207D005F58065A84203D005F58065AE
:100F0800A84205D124F440754C692C438D692C43C3
:100F1800446082614A684263036230BC704700BF24
:100F2800002C014030B4036A23F010030362036A03
:100F38004468826922F0807222F4E6420D6842EA2F
:100F4800052223F020038D6843EA0513144DA842B7
:100F58001DD0134DA8420BD005F5A055A84207D0C7
:100F680005F58065A84203D005F58065A84207D13C
:100F780024F440644D6944EA85048D6944EA850493
:100F8800446082614A688263036230BC704723F020
:100F98008003CD6843EA051323F04003D9E700BF77
:100FA800002C014030B4036A23F480730362036A9F
:100FB8004468C26922F4803222F073020D682A4321
:100FC80023F400738D6843EA0523144DA8421DD00D
:100FD800124DA8420BD005F5A055A84207D005F53B
:100FE8008065A84203D005F58065A84207D124F49E
:100FF80040544D6944EA05148D6944EA0514446077
:10100800C2614A68C263036230BC704723F400635C
:10101800CD6843EA052323F48063D9E7002C014017
:1010280030B4036A23F480530362026A4468C369D4
:1010380023F0807323F4E6430D6843EA052322F482
:1010480000528D6842EA05320D4DA8420BD005F5D5
:10105800A055A84207D005F58065A84203D005F53C
:101068008065A84204D124F480444D6944EA85147B
:101078004460C3614B680364026230BC704700BFC0
:10108800002C014010B4846824F47F4442EA03230E
:101098000B43234383605DF8044B704790F83C3062
:1010A800012B00F0828010B50446012380F83C3003
:1010B800022380F83D30026890683D4B03409360FE
:1010C8000B68402B5DD010D9702B40D01FD8502B07
:1010D8004DD0602B34D1CA6849682068FFF745FEB7
:1010E80060212068FFF755FE2AE0102B53D008D95D
:1010F800202B55D0302B23D130212068FFF749FE13
:101108001EE0EBB900212068FFF743FE18E0B3F5B5
:10111800805F0ED0B3F5005F12D1CB684A6889684A
:101128002068FFF7AFFF2268936843F48043936019
:1011380006E02268936823F4803323F00703936062
:10114800012384F83D30002084F83C0010BDCB68B2
:101158004A6889682068FFF795FF2268936823F436
:10116800803323F0770343F077039360E8E7CA6896
:1011780049682068FFF7E6FD50212068FFF709FE5F
:10118800DEE7CA6849682068FFF7DCFD402120686F
:10119800FFF7FFFDD4E710212068FFF7FAFDCFE73E
:1011A80020212068FFF7F5FDCAE70220704700BF3D
:1011B8008800FEFF10B4012303FA01F4036A23EA4E
:1011C80004030362036A8A40134303625DF8044B15
:1011D8007047000010B5044601220068FFF7EAFFD7
:1011E80023680D4A93420BD002F5A052934207D0D0
:1011F80002F58062934203D002F58062934203D1E4
:101208005A6C42F400425A642268136843F001039E
:101218001360002010BD00BF002C014030B4036AE9
:1012280023F480330362036A4468426D22F48032F7
:1012380022F070020D682A4323F400338D6843EAD4
:1012480005430D4DA8420BD005F5A055A84207D07F
:1012580005F58065A84203D005F58065A84204D14C
:1012680024F480344D6944EA0524446042654A68A0
:101278008265036230BC7047002C014030B4036AB9
:1012880023F480130362026A4468436D23F0807379
:1012980023F4E0430D6843EA052322F400128D6825
:1012A80042EA05520D4DA8420BD005F5A055A842BB
:1012B80007D005F58065A84203D005F58065A842EA
:1012C80004D124F480244D6944EA852444604365AC
:1012D8004B68C365026230BC704700BF002C0140F8
:1012E80038B590F83C30012B00F092800D4604464A
:1012F800012380F83C30022380F83D30142A1ED8A0
:10130800DFE802F00B1D1D1D241D1D1D381D1D1DB0
:101318004B1D1D1D5F1D1D1D72000068FFF7BCFDE4
:101328002268936943F0080393612268936923F064
:10133800040393612268936929690B43936101232C
:1013480084F83D30002084F83C0038BD0068FFF781
:10135800E9FD2268936943F4006393612268936905
:1013680023F48063936122689369296943EA01231E
:101378009361E4E70068FFF715FE2268D36943F03C
:101388000803D3612268D36923F00403D361226878
:10139800D36929690B43D361D1E70068FFF740FEA1
:1013A8002268D36943F40063D3612268D36923F4C4
:1013B8008063D3612268D369296943EA0123D36131
:1013C800BDE70068FFF72AFF2268536D43F0080362
:1013D80053652268536D23F0040353652268536DE7
:1013E80029690B435365AAE70068FFF747FF22689E
:1013F800536D43F4006353652268536D23F480638F
:1014080053652268536D296943EA0123536596E7BA
:1014180002209AE790F83C30012B1FD030B401230A
:1014280080F83C300268536895680D4CA24210D091
:1014380023F070030C68234325F080048968214356
:10144800536003689960002380F83C30184630BC2C
:10145800704723F470034C682343E9E70220704780
:10146800002C014010B504468368026913434269A1
:101478001343C269134301680868654A024013436D
:101488000B602268536823F44053E1680B435360B0
:10149800A369226A1A4321688B6823F430631343D3
:1014A8008B6023685B4A934215D05B4A934229D0EC
:1014B80002F58062934221D01022E169B1F5004F14
:1014C80022D0082A00F2A280DFE802F066727EA02D
:1014D8008AA0A0A0960002F55842126B02F00302FF
:1014E800032A09D8DFE802F00204060C0022E4E728
:1014F8000422E2E70822E0E71022DEE70022DCE728
:101508000222DAE70022D8E7082A42D8DFE802F008
:10151800051722412D4141413800FFF7E7FB62687A
:10152800530803EB4003B3FBF2F39BB2002023F014
:101538000F02C3F3420313432268D36010BDFFF7C1
:10154800EBFB6268530803EB4003B3FBF2F39BB277
:101558000020ECE76268530803F5740303F51053A1
:10156800B3FBF2F39BB20020E1E7FFF7B1FA626840
:10157800530803EB4003B3FBF2F39BB20020D6E71A
:101588006268530803F58033B3FBF2F39BB2002083
:10159800CDE701200023CAE7FFF7A8FB636800EB4B
:1015A8005300B0FBF3F0236880B2D8600020C5E791
:1015B800FFF7B2FB636800EB5300B0FBF3F023685E
:1015C80080B2D8600020B9E761684A0802F5F402E1
:1015D80002F59052B2FBF1F292B2DA600020ADE768
:1015E800FFF776FA636800EB5300B0FBF3F023686B
:1015F80080B2D8600020A1E761684A0802F500427D
:10160800B2FBF1F292B2DA60002097E7012095E789
:10161800F369FFEF0038014000440040436A13F0CB
:10162800010F06D00268536823F40033816A0B4324
:101638005360436A13F0020F06D00268536823F41C
:101648008033C16A0B435360436A13F0040F06D01A
:101658000268536823F48023016B0B435360436A89
:1016680013F0080F06D00268536823F40043416B57
:101678000B435360436A13F0100F06D00268936857
:1016880023F48053816B0B439360436A13F0200F5C
:1016980006D00268936823F40053C16B0B43936030
:1016A800436A13F0400F0AD00268536823F480138A
:1016B800016C0B435360036CB3F5801F0BD0436A76
:1016C80013F0800F06D00268536823F40023816C5E
:1016D8000B43536070470268536823F4C003416C9E
:1016E8000B435360EBE72DE9F04105460F461646DC
:1016F8009846069C2B68DB6937EA03030CBF012375
:101708000023B3421DD1B4F1FF3FF3D02CB1FEF753
:1017180099FDA0EB0800A042ECD92A68136823F4CD
:10172800D07313602A68936823F001039360202321
:1017380085F8693085F86A30002385F86830032019
:1017480000E00020BDE8F08130B583B004460023F6
:10175800C366FEF777FD054623681B6813F0080F7C
:101768000ED123681B6813F0040F17D1202384F8C7
:10177800693084F86A30002084F8680003B030BD0E
:101788006FF07E430093034600224FF40011204679
:10179800FFF7A9FF0028E4D00320EFE76FF07E43AE
:1017A80000932B4600224FF480012046FFF79BFF51
:1017B8000028DBD00320E1E778B310B5044690F8A1
:1017C80069300BB3242384F869302268136823F046
:1017D800010313602046FFF745FE012813D0636A12
:1017E800BBB92268536823F4904353602268936816
:1017F80023F02A0393602268136843F001031360FF
:101808002046FFF7A1FF10BD80F8683000F016F9F8
:10181800D8E72046FFF702FFE3E701207047000002
:1018280082B00A4B5A6942F480025A615A6902F43A
:1018380080020092009A5A6942F400325A615B6948
:1018480003F400330193019B02B07047001002407B
:1018580008B50948094B03604FF416434360002359
:101868008360C36003610C2242618361C3610362C8
:101878004362FFF7A1FF08BD6C0000200044004050
:1018880030B58FB000240A940B940C940D940794EF
:101898000894099400940194029403940494059480
:1018A8000694174D4FF080432B604FF41C736B6008
:1018B800AC60FF23EB602C61AC612846FFF7BAFAF5
:1018C8004FF480530A930AA92846FFF7E7FB2846F6
:1018D800FFF7C9FA0794099407A92846FFF79AFD64
:1018E80060230093019402940494042269462846D4
:1018F800FFF7F6FC284600F07CF80FB030BD00BFBB
:101908002C00002010B590B02422002107A800F078
:1019180057F9002401940294039404940594022333
:10192800069301230A9310230B9306A8FEF7C4FD20
:101938000F2301930294039404940594214601A86B
:10194800FFF7FEF810B010BD10B5FEF75DFCFFF70D
:10195800D9FFFFF765FFFFF77BFFFFF791FF042132
:101968000D48FFF737FC14E00B4B1B689C63052000
:10197800FEF76EFC0134E4B2FF2CF5D107E0064B0C
:101988001B689C630520FEF763FC013CE4B2002C55
:10199800F5D10024F0E700BF2C00002082B00A4BEC
:1019A8009A6942F001029A619A6902F00102009272
:1019B800009ADA6942F08052DA61DB6903F08053F9
:1019C8000193019B02B07047001002400368B3F115
:1019D800804F00D0704782B003F50433DA6942F0D3
:1019E8000102DA61DB6903F001030193019B02B094
:1019F800704700B587B000230193029303930493C3
:101A080005930368B3F1804F02D007B05DF804FB7B
:101A180003F504335A6942F400325A615B6903F4EE
:101A280000330093009B0223019302930123059343
:101A380001A94FF09040FEF77BFCE6E700B589B0BE
:101A48000023039304930593069307930268144BAA
:101A58009A4202D009B05DF804FB03F5E633DA696F
:101A680042F40032DA61DA6902F400320192019A32
:101A78005A6942F400325A615B6903F400330293F5
:101A8800029B48F20403039302230493032306935F
:101A98000723079303A94FF09040FEF749FCD9E7C5
:101AA800004400407047FEE7FEE7FEE7FEE77047A8
:101AB8007047704708B5FEF7B9FB08BD1549D1F85E
:101AC800883043F47003C1F88830134B1A6842F029
:101AD80001021A605868114A02405A601A6822F0D6
:101AE800847222F480321A601A6822F480221A6002
:101AF8005A6822F4FE025A60DA6A22F00F02DA62A9
:101B0800186B074A02401A6300229A604FF000637C
:101B18008B60704700ED00E0001002400CC07FF8B9
:101B2800CCFC00FFDFF834D0002103E00C4B5B58FD
:101B3800435004310B480C4B42189A42F6D30B4AD7
:101B480002E0002342F8043B094B9A42F9D3FFF71D
:101B5800B5FF00F011F8FFF7F7FEFEE700300020B0
:101B6800301C0008000000200C0000200C000020A1
:101B7800DC000020FEE7000070B50D4E0D4CA41BE4
:101B8800A4100025A54209D10B4E0C4C00F020F8FA
:101B9800A41BA4100025A54205D170BD56F8253018
:101BA80098470135EEE756F8253098470135F2E7B2
:101BB800281C0008281C0008281C00082C1C0008E9
:101BC80002440346934200D1704703F8011BF9E72A
:101BD800F8B500BFF8BC08BC9E467047F8B500BF12
:081BE800F8BC08BC9E467047E2
:101BF00002030405060708090A0B0C0D0E0F10104E
:101C00000102030405060708090A0B0C0D0E0F104C
:101C1000000000000000000001020304060708099C
:081C20000000000001020304B2
:041C2800AD01000802
:041C2C008901000822
:0C1C3000010000001000000000127A000B
:0400000508001B2DA7
:00000001FF
